:020000040800F2
:10000000C00A0020350F0008FD010008FF010008AC
:1000100003020008070200080B02000800000000AD
:100020000000000000000000000000000F020008B7
:100030001102000800000000130200081502000869
:100040004F0F00084F0F00084F0F00084F0F000818
:100050004F0F00084F0F00084F0F00084F0F000808
:100060004F0F00084F0F00084F0F00084F0F0008F8
:100070004F0F00084F0F00084F0F00084F0F0008E8
:100080004F0F00084F0F00084F0F00084F0F0008D8
:100090004F0F00084F0F00084F0F00084F0F0008C8
:1000A0004F0F00084F0F00084F0F00084F0F0008B8
:1000B0004F0F00084F0F00081D0900084F0F0008E0
:1000C0004F0F00084F0F00084F0F00084F0F000898
:1000D0004F0F0008C90C00084F0F00084F0F000811
:1000E0004F0F00084F0F00084F0F000800F002F8F4
:1000F00000F042F80AA090E8000C82448344AAF180
:100100000107DA4501D100F037F8AFF2090EBAE87D
:100110000F0013F0010F18BFFB1A43F0010318473B
:100120004C3A00006C3A0000103A24BF78C878C1FD
:10013000FAD8520724BF30C830C144BF04680C60ED
:10014000704700000023002400250026103A28BF35
:1001500078C1FBD8520728BF30C148BF0B60704739
:10016000692902F05184642902F04E84002070470E
:100170001FB51FBD10B510BD02F09AFD1146FFF767
:10018000F7FF00F009F802F0B8FD03B4FFF7F2FF43
:1001900003BC00F023FD00009AB000F003FB00F068
:1001A000BCF910230FA200211E2000F0AFFA00F0CE
:1001B0005BFB4FF4A06000F0DDFE12E000F06EFC8F
:1001C000044674B1214609A002F0D6FB224608A1DC
:1001D00001A802F0DDFB102301AA04211E2000F07B
:1001E00095FAEBE74F4C4544000000002564000001
:1001F0006B65793A2533642020000000704700BF0A
:10020000FEE700BFFEE700BFFEE700BFFEE7704766
:1002100070477047704700000CB5002001900090B7
:100220006C48006840F480306A49086000BF694843
:10023000006800F4003000900198401C0190009884
:1002400018B90198B0F5A06FF1D16248006800F4C8
:10025000003010B10120009001E0002000900098D3
:10026000012843D15C48006840F010005A490860FA
:100270000846006820F0030008600846006840F067
:100280000200086053484068524948600846406888
:1002900048600846406840F480604860084640680E
:1002A00020F47C1048600846406840F4E81048603C
:1002B0000846006840F08070086000BF454800684C
:1002C00000F000700028F9D04248406820F0030098
:1002D000404948600846406840F00200486000BF5E
:1002E0003C48406800F00C000828F9D10CBD10B55E
:1002F000FFF792FF10BD10B53648006840F00100CE
:10030000344908600846406834490840314948602B
:1003100008460068324908402E49086008460068CF
:1003200020F4802008600846406820F4FE00486001
:100330004FF41F008860FFF7DAFF4FF00060294993
:10034000086010BD10B5002100200022214B5B6821
:1003500003F00C0121B1042906D0082928D107E0B7
:10036000214B224C236027E01F4B204C236023E0CD
:10037000184B5B6803F47010164B5B6803F4803213
:10038000022303EB904022B9194B4343174C2360DF
:100390000DE0104B5B6803F4003323B1144B43436F
:1003A000124C236003E0104B4343104C236003E0E6
:1003B0000D4B0E4C236000BF00BF064B5B68C3F3C0
:1003C00003130C4CE15C094B1B68CB40074C2360CA
:1003D00010BD000000100240002002400000FFF8A5
:1003E000FFFFF6FE08ED00E000127A00000000209A
:1003F00000093D000400002010B54FF40061F748EB
:1004000000F033FF4FF48061F44800F02EFF4FF40A
:100410000061F24800F02BFF4FF48061EF4800F0DC
:1004200026FF10BD10B54FF48061EC4800F01DFFB1
:100430004FF40061E94800F01AFF4FF40061E7480B
:1004400000F013FF10BD10B54FF48061E34800F0D9
:100450000CFF4FF48061E14800F009FF10BD70B55A
:100460000446002520E04FF48061DC4800F0FFFEE8
:1004700004F0800028B14FF40061D84800F0F5FE88
:1004800004E04FF40061D54800F0F1FE4FF48061C4
:10049000D24800F0EAFE4FF48061D04800F0E7FE59
:1004A0006006040E681CC5B2082DDCDB70BD70B59B
:1004B00005460C46FFF7A0FF7820FFF7D0FFFFF7B7
:1004C000C2FF1CB14020FFF7CAFF02E00020FFF787
:1004D000C6FFFFF7B8FF2846FFF7C1FFFFF7B3FFDE
:1004E000FFF7A0FF70BD10B5002405E0BC49085D12
:1004F0000021FFF7DCFF641C1B2CF7DB10BD10B5DF
:10050000044600212046FFF7D2FF10BD10B5044677
:1005100001212046FFF7CBFF10BD70B5002415E088
:1005200004F1B001C8B2FFF7EAFF0020FFF7E7FFD0
:100530001020FFF7E4FF002504E00020FFF7E6FFAE
:10054000681CC5B2802DF8DB601CC4B21B2CE7DB35
:1005500070BD10B58D20FFF7D2FF1420FFF7CFFF3D
:10056000AF20FFF7CCFF10BD10B58D20FFF7C7FF00
:100570001020FFF7C4FFAE20FFF7C1FF10BD70B51C
:1005800004460D4605F1B001C8B2FFF7B8FF1021CF
:1005900041EA1410FFF7B3FF04F00F00FFF7AFFFBD
:1005A00070BD70B5002415E004F1B001C8B2FFF7CA
:1005B000A6FF0020FFF7A3FF1020FFF7A0FF0025F4
:1005C00004E00120FFF7A2FF681CC5B2802DF8DB14
:1005D000601CC4B2082CE7DB70BD10B502460120D8
:1005E00000E050430B1EA1F10104E1B2F9D110BDAE
:1005F0002DE9F04707460E4690469946002500240F
:10060000A8F12000C5B27F2F02DD0027B01CC6B2C2
:10061000B9F1100F22D131463846FFF7B0FF002460
:1006200007E004EB05116F4A505CFFF76FFF601C99
:10063000C4B2082CF5DB701CC1B23846FFF79FFF2F
:10064000002408E004EB05110831664A505CFFF70E
:100650005DFF601CC4B2082CF4DB11E03146384663
:10066000FFF78DFF002409E005EB45015E4A02EB30
:100670004101085DFFF74AFF601CC4B2062CF3DBA2
:10068000BDE8F0872DE9FF5F074691461E460E9DA7
:100690004FF0000A002435E0301B401EC1B20A2092
:1006A000FFF79BFFB9FBF0F00A21B0FBF1F201FB71
:1006B0001208BAF1000F14D1701EA04211DDB8F17A
:1006C000000F0CD1AB4605EBDB71491001FB047147
:1006D000C8B22B4620220199FFF78AFF10E04FF0A5
:1006E000010AAB4605EBDB71491001FB0471C8B28E
:1006F00008F13001CAB22B460199FFF779FF00BF1C
:10070000601CC4B2B442C7DBBDE8FF9F2DE9F041D5
:1007100004460F461546984600260FE0AA5D43465C
:1007200039462046FFF764FF04F10800C4B2782C74
:1007300002DD0024B81CC7B2701CC6B2A85D002838
:10074000ECD1BDE8F0812DE9F04180460E4615461A
:10075000002731464046FFF712FF002409E0234AF4
:1007600002EB8511085DFFF7D1FE781CC7B2601C53
:10077000C4B2102CF3DB701CC1B24046FFF7FFFE81
:1007800000240BE06900491C184A02EB4111085D86
:10079000FFF7BCFE781CC7B2601CC4B2102CF1DBA2
:1007A000BDE8F08108B50121082000F06DFF4FF48D
:1007B0004060ADF8000010208DF8030003208DF894
:1007C00002006946054800F0A3FC094800F0D8F98A
:1007D000FFF789FEFFF7A1FE08BD0000000C0140F5
:1007E000140000204A2F0008222D00082A35000896
:1007F000A08601002DE9F04706460F4690461C46AC
:100800004FF0000AE11704EB5171C910A4EBC101CC
:1008100031B92046E11704EB5171C1F3C70506E079
:100820002046E11704EB5171C910491CCDB23D4679
:1008300014E029463046FFF7A2FEB1460AE05146D1
:100840000AF1010A074A505CFFF760FE09F1010056
:1008500000F0FF09C145F2DB681CC5B2A542E8DB28
:10086000BDE8F0876A37000800B589B0012108208B
:1008700000F00AFF0121042000F013FF4FF4007084
:10088000ADF8200028208DF8230003208DF82200E9
:1008900008A9A44800F03CFC4FF40071A14800F006
:1008A000E4FC42F21070ADF814004720ADF81000DF
:1008B0000020ADF81600ADF8120004A99A4801F026
:1008C0001BF80C20ADF804000020ADF80600012054
:1008D000ADF808000020ADF80A000320ADF80C00C8
:1008E00001A9914801F09BFA01218F4801F060FBBA
:1008F0001E208DF81C0001208DF81D0003208DF8AE
:100900001E0001208DF81F0007A800F038FB01220F
:100910001121854801F067FB09B000BD10B5012128
:10092000814801F00EFEF8B18048007800F08000A8
:10093000D0B17E48007820F010007C49087008464D
:10094000007800F00F0020B90846007840F0400021
:1009500008707648007800F00F000E2805DA73481A
:100960000078401C714908700AE07048007820F057
:1009700080006E4908700846007800F0F0000870AA
:100980001021694801F0DDFD002810D0684800689A
:1009900070B10221644801F003FD0021624801F0BA
:1009A0009BFD6248007840F010006049087070E0DC
:1009B0005D4801F0B0FD5F49088000215A4801F010
:1009C000EFFC5A48007800F0100000285BD0574830
:1009D000007800F08000E8B356480088B0F5967FB4
:1009E0000DDD54480088B0F5487F08DA52480068A9
:1009F00040005149086008460068086043E04D48DF
:100A00000088B0F5AF6F0FDD4A480088B0F5E16FA0
:100A10000ADA49480068400047490860084600680B
:100A200040F0010008602EE04248008840F698013E
:100A3000884228DD3F48008840F62821884222DA93
:100A40003E480078401C3D4908703848007800F066
:100A5000F00000E002E03549087014E035480088F5
:100A600041F2680188420EDD3248008841F25C2183
:100A7000884208DA2D48007840F080002B49087041
:100A800000202E4908702948007820F010002749DE
:100A900008701121244801F065FD10BD70B50026D5
:100AA0002248007800F04000002838D02248006832
:100AB000040E21480068C0F30745214620A001F03C
:100AC0005BFFE94321A001F057FFE843C0B2A04219
:100AD00001D1012000E0002001461FA001F04CFFE1
:100AE000E843C0B2A0420BD154B913480088C0F308
:100AF000072411480578E843C0B2A04200D1264639
:100B000026B10A48007800F0800040B90748007814
:100B100020F0400005490870002008490870304660
:100B200070BD0000000C01400008004030000020B3
:100B300024812142320000203400002038000020AF
:100B400074312D2D2D2D25640D0A000074322D2DAC
:100B50002D2D25640D0A0000256900001B48006842
:100B600040F0807019490860002019494860084623
:100B7000006840F001000860704715484068704701
:100B800031B50024FFF7EAFF124800681249B0FBB4
:100B9000F1F0009900FB01F500BFFFF7EEFF0346FF
:100BA00011E0FFF7EAFF02469A420CD09A4202D9BE
:100BB000D01A044403E0C3F1FF3010440444134648
:100BC000AC4200D300E0ECE700BF38BDFCED00E034
:100BD000001000E00000002040420F00014600BF6E
:100BE000704770B504460D46E1B2CF4801F0FAFDFA
:100BF00000BF4021CC4801F063FE0028F9D0204618
:100C000070BD10B5044600BF2021C74801F058FE52
:100C10000028F9D0C44801F0E9FD10BD10B586B038
:100C20000446012144F2040000F02EFD4FF4007050
:100C3000ADF8140003208DF8160018208DF8170069
:100C400005A9BA4800F064FA4FF48060ADF81400CA
:100C500004208DF8170005A9B44800F059FA4FF4A4
:100C6000A06000F087F925208DF8000003208DF8A2
:100C700001008DF8020001208DF80300684600F0A5
:100C80007EF901940020ADF80800ADF80A00ADF837
:100C90000C00ADF810000C20ADF80E0001A9A24820
:100CA00001F0A7FC012240F225519F4801F039FDD7
:100CB000012240F224419C4801F033FD01219A4871
:100CC00001F023FD06B010BD10B540F22551964845
:100CD00001F00CFED8B1944801F088FDC4B29448EC
:100CE000B0F80004C0F30E0040F2FF3188420EDA83
:100CF0008F49B1F80014C1F30E00411C8C4AB2F8C0
:100D0000002461F30E028A49A1F800240C5440F239
:100D10002441854801F0EAFD01280DD18448B0F84E
:100D2000000420F4004000F500408149A1F80004CF
:100D30007D4801F05BFDC4B210BDF0B503460D4621
:100D40001646002729460A2E03D0002008702846A0
:100D5000F0BD33B9302001F8010B0020087028469F
:100D6000F6E7002B03DA2D2001F8010B5B4242F27B
:100D700010720DE093FBF2F404B937B104F13000C6
:100D800001F8010B04FB123301270A2092FBF0F259
:100D9000002AEFDC002008702846D9E70FB470B5B0
:100DA00086B006460CA8019073E00B9800785C288A
:100DB0001CD10B98401C0B9000786E2809D072282B
:100DC0000FD10D21304601F00DFD0B98401C0B900A
:100DD0000BE00A21304601F005FD0B98401C0B90FA
:100DE00003E00B98401C0B9000BF4BE00B98007881
:100DF000252840D10B98401C0B900078642818D00F
:100E0000732833D1019810C801900BE02178304647
:100E100001F0E8FC00BF8021304601F051FD0028C0
:100E2000F9D0641C20780028F0D10B98401C0B905E
:100E300020E0019820C801900A2202A92846FFF765
:100E40007CFF02AC0BE02178304601F0CBFC00BF08
:100E50008021304601F034FD0028F9D0641C207850
:100E60000028F0D10B98401C0B9003E00B98401C1D
:100E70000B9000BF06E00B9810F8011B0B9030465A
:100E800001F0B0FC00BF8021304601F019FD0028C0
:100E9000F9D00B980078002887D106B070BC5DF8B7
:100EA00014FB70B504460D462946204601F09AFC15
:100EB00000BF8021204601F003FD0028F9D070BD5D
:100EC00070B506460C46002500BF615D3046FFF751
:100ED000E8FF6D1C605D0028F7D100BF402130465F
:100EE00001F0EEFC0028F9D070BD2DE9F041054677
:100EF0000C46260AE7B23146284601F073FC00BFD3
:100F00008021284601F0DCFC0028F9D0394628462B
:100F100001F068FC00BF8021284601F0D1FC0028C8
:100F2000F9D0BDE8F0810000003801400008014020
:100F3000580000200948804709480047FEE7FEE7BF
:100F4000FEE7FEE7FEE7FEE7FEE7FEE7FEE7FEE779
:100F500004480549054A064B70470000F70200089F
:100F6000ED000008C0040020C00A0020C0060020D8
:100F7000C006002031490143314A1160704770B505
:100F8000002100230F22C47804B32D4C246804F4FC
:100F9000E064C4F5E064210AC1F10403CA40447866
:100FA00004FA03F18478144021430901254C0678A2
:100FB000A155047804F01F050124AC4005786D119B
:100FC000AD0005F1E025C5F8004109E0047804F022
:100FD0001F050124AC401C4D0678761145F82640CB
:100FE00070BD1A4A0A400243154B1B1F1A60704716
:100FF00039B1134A121D12680243114B1B1D1A60AE
:1010000006E00F4A121D126882430D4B1B1D1A6029
:101010007047042808D14FF0E021096941F004012C
:101020004FF0E022116107E04FF0E021096921F063
:1010300004014FF0E0221161704700000000FA0542
:101040000CED00E000E400E080E100E080FFFF1F25
:1010500010B50446CC48844208D10121042000F098
:101060002DFB0021042000F029FB46E0C748844204
:1010700008D10121082000F021FB0021082000F008
:101080001DFB3AE0C248844208D10121102000F043
:1010900015FB0021102000F011FB2EE0BD4884421A
:1010A00008D10121202000F009FB0021202000F0C0
:1010B00005FB22E0B848844208D10121402000F01D
:1010C000FDFA0021402000F0F9FA16E0B34884420E
:1010D00008D10121802000F0F1FA0021802000F0E9
:1010E000EDFA0AE0AE48844207D10121801500F0F4
:1010F000E5FA0021A01500F0E1FA10BD10B50121BC
:10110000084600F0DBFA0021012000F0D7FA10BDFC
:101110002DE9F0410246002500260020002300248E
:10112000002791F803C00CF00F0591F803C00CF0F4
:10113000100CBCF1000F03D091F802C04CEA050579
:1011400091F800C0BCF1000F31D0146800202BE0F2
:101150004FF0010C0CFA00F3B1F800C00CEA0306E2
:101160009E4220D183004FF00F0C0CFA03F7BC43D2
:1011700005FA03FC4CEA040491F803C0BCF1280F03
:1011800006D14FF0010C0CFA00FCC2F814C00AE0C2
:1011900091F803C0BCF1480F05D14FF0010C0CFAD7
:1011A00000FCC2F810C0401C0828D1D31460B1F86C
:1011B00000C0BCF1FF0F34DD546800202EE000F1C8
:1011C000080C4FF0010808FA0CF3B1F800C00CEA63
:1011D00003069E4221D183004FF00F0C0CFA03F757
:1011E000BC4305FA03FC4CEA040491F803C0BCF1CB
:1011F000280F05D100F1080C08FA0CF8C2F8148089
:1012000091F803C0BCF1480F07D100F1080C4FF072
:10121000010808FA0CF8C2F81080401C0828CED348
:101220005460BDE8F0814FF6FF71018002218170AA
:101230000421C17070470246002093680B400BB137
:10124000012000E0002070470146886880B27047A6
:1012500002460020D3680B400BB1012000E00020C3
:1012600070470146C86880B27047016170474161AC
:1012700070470AB1016100E041617047C160704789
:101280004FF480320A43826181618261826982699E
:10129000704702460020434B18684FF68073184091
:1012A00040EA021008433F4B186070473E49C8614E
:1012B0007047F0B50A46002300240021002500F005
:1012C0000046B6F1004F02D1364EF16901E0354ECD
:1012D0007168C0F3034583B200F44016B6F5401FB1
:1012E00008D121F070612F4E766826F070662D4F80
:1012F0007E6012E000F48016B6F5801F06D103264A
:1013000006FA05F4A14341F0706106E0460D36018E
:1013100003FA06F6B14341F0706122B1460D360181
:1013200003FA06F6314300F00046B6F1004F02D151
:101330001C4EF16101E01B4E7160F0BD30B5002222
:101340008B071C0F0F2303FA04F2164B08338C1083
:1013500053F824309343134C08348D1044F825304F
:1013600023468C1053F824308C07240F00FA04F421
:1013700023430C4C08348D1044F8253030BD0A4905
:10138000DC3108607047000000080140000C01409B
:10139000001001400014014000180140001C0140F1
:1013A000002001400000014000002042DF480068AA
:1013B00040F00100DD49086008464068DC4908400B
:1013C000DA49486008460068DA490840D7490860A9
:1013D0000846006820F4802008600846406820F431
:1013E000FE0048604FF41F0088607047CF490968CD
:1013F00021F48031CD4A11601146096821F4802121
:101400001160B0F5803F03D0B0F5802F0ED106E01B
:10141000C649096841F48031C44A116007E0C349F4
:10142000096841F4A021C14A116000E000BF00BF7B
:10143000704710B501460022002300204A11012AFE
:1014400002D1BA4C236806E0022A02D1B74C236AC3
:1014500001E0B64C636A01F01F02012494401C4075
:101460000CB1012000E0002010BD38B50020009034
:101470000024002500BF3120FFF7DBFF0546009860
:10148000401C00900098B0F5A06F01D0002DF2D064
:101490003120FFF7CEFF08B1012400E000242046F0
:1014A00038BD01460020A14A106820F0F80040EA4B
:1014B000C10010607047A0490860704702460020D4
:1014C0009A4B586820F47C1042EA01031843974B6A
:1014D0005860704798490866704701460020934A53
:1014E000506820F003000843506070478F48406800
:1014F00000F00C007047014600208C4A506820F034
:10150000F00008435060704701460020874A506849
:1015100020F4E06008435060704701460020834A91
:10152000506820F4605040EAC1005060704729B113
:101530007E4A527A02437D4B5A7204E07B4A527AC9
:1015400082437A4B5A7270477B49D83108607047A2
:1015500001460020754A506820F44040084350601E
:1015600070470021714A20321170704A82F82010B1
:10157000012802D004280AD104E001216B4A20325C
:10158000117005E00521694A2032117000E000BFAA
:1015900000BF70476949086070476449096A0143A0
:1015A000624A11627047654944390860704730B536
:1015B00000210022002400235C4D6D6805F00C0121
:1015C00021B1042905D0082923D105E05C4D05602F
:1015D00022E05B4D05601FE0544D6D6805F470120C
:1015E000524D6D6805F48034022505EB92421CB91A
:1015F000544D554305600BE04C4D6D6805F40035C6
:101600001DB1504D5543056002E04D4D55430560F9
:1016100002E04B4D056000BF00BF444D6D6805F012
:10162000F0010909484D6B5C0568DD4045603F4DA0
:101630006D6805F4E061090A434D6B5C4568DD4067
:1016400085603A4D6D6805F46051C90A3E4D6B5C8A
:101650004568DD40C560354D6D6805F44041890B36
:101660003A4D6B5CC568B5FBF3F5056130BD29B13A
:101670002E4A526902432D4B5A6104E02B4A5269AB
:1016800082432A4B5A61704729B1284A9269024322
:10169000264B9A6104E0254A92698243234B9A6162
:1016A000704729B1214AD2690243204BDA6104E034
:1016B0001E4AD26982431D4BDA61704729B11B4A29
:1016C000D2680243194BDA6004E0184AD2688243B8
:1016D000164BDA60704729B1144A12690243134B62
:1016E0001A6104E0114A12698243104B1A61704773
:1016F00012494039086070470F49C86470470B4968
:10170000C87170470948406A40F0807007494862D4
:10171000704701460020054A92680A400AB101203C
:1017200000E00020704701498872704700100240B5
:101730000000FFF8FFFFF6FE000042428004424234
:1017400000127A0000093D004100002051000020F5
:1017500010B50446FE48844208D10121C014FFF7A9
:10176000ADFF0021E014FFF7A9FFC4E0B4F1804F02
:1017700008D101210846FFF7AEFF00210120FFF745
:10178000AAFFB8E0F348844208D101210220FFF704
:10179000A2FF00210220FFF79EFFACE0EE4884424A
:1017A00008D101210420FFF796FF00210420FFF754
:1017B00092FFA0E0E948844208D101210820FFF708
:1017C0008AFF00210820FFF786FF94E0E448844266
:1017D00008D101211020FFF77EFF00211020FFF724
:1017E0007AFF88E0DF48844208D101212020FFF7FA
:1017F00072FF00212020FFF76EFF7CE0DA48844270
:1018000008D101214014FFF759FF00216014FFF7B0
:1018100055FF70E0D548844209D10121C804FFF783
:101820004DFF00214FF40020FFF748FF63E0D04850
:10183000844209D101210805FFF740FF00214FF440
:101840008010FFF73BFF56E0CA48844209D10121CE
:101850004805FFF733FF00214FF40010FFF72EFF7C
:1018600049E0C548844208D101214020FFF733FFF9
:1018700000214020FFF72FFF3DE0C048844208D1FF
:1018800001218020FFF727FF00218020FFF723FFA1
:1018900031E0BB48844208D101218015FFF71BFFCE
:1018A0000021A015FFF717FF25E0B648844209D1B3
:1018B00001210804FFF702FF00214FF48030FFF7F9
:1018C000FDFE18E0B048844209D101214804FFF729
:1018D000F5FE00214FF40030FFF7F0FE0BE0AB48BF
:1018E000844208D101218804FFF7E8FE00214FF46B
:1018F0008020FFF7E3FE10BD00220288944B98423F
:101900000ED0994B98420BD0B0F1804F08D0914B3C
:10191000984205D0904B984202D0904B984204D107
:101920004FF68F731A404B881A438D4B984207D05D
:101930008C4B984204D04FF6FF431A40CB881A4391
:1019400002808B8883850B880385814B98420BD05E
:10195000854B984208D08B4B984205D08A4B9842D1
:1019600002D08A4B984201D10B7A038601238382ED
:10197000704770B5002400220023058C4FF6FE76D8
:1019800035400584028C8388048B4FF68F752C407C
:10199000B51E2C400D882C43751E2A400D892A4304
:1019A0004D882A436A4DA8420BD06F4DA84208D0FB
:1019B000744DA84205D0744DA84202D0734DA84280
:1019C00013D14FF6F7752A404D892A434FF6FB7520
:1019D0002A408D882A434FF6FF652B404FF6FF556E
:1019E0002B408D892B43CD892B4383800483CD8865
:1019F0008586028470BD70B5002400220023058C0A
:101A00004FF6EF7635400584028C8388048B48F6C8
:101A1000FF752C404FF6FF452C400D884FF6FF76A2
:101A200006EA05252C434FF6DF752A400D8906EAA4
:101A300005152A434D8806EA05152A43444DA84258
:101A400002D0494DA8421DD14FF67F752A404D89DD
:101A50004FF6FF7606EA05152A434FF6BF752A4072
:101A60008D8806EA05152A434FF6FF352B404FF2C5
:101A7000FF752B408D8906EA85052B43CD8906EA43
:101A800085052B4383800483CD880587028470BD40
:101A900070B5002400220023058C4FF6FF66354008
:101AA0000584028C8388848B4FF68F752C404FF60B
:101AB000FC752C400D882C434FF6FF552A400D89AC
:101AC0004FF6FF7606EA05252A434D8806EA0525E6
:101AD0002A431F4DA84202D0234DA8421DD14FF2E8
:101AE000FF752A404D894FF6FF7606EA05252A4301
:101AF0004FF6FF352A408D8806EA05252A434EF623
:101B0000FF752B404DF6FF752B408D8906EA0515B4
:101B10002B43CD8906EA05152B4383808483CD882A
:101B20008587028470BD70B5002200230024058CD7
:101B30004EF6FF7635400584038C8488828B48F608
:101B4000FF752A404FF6FF452A400D8820E000002F
:101B5000002C01400004004000080040000C004040
:101B6000001000400014004000340140004C0140CF
:101B7000005001400054014000180040001C00408B
:101B80000020004000400140004401400048014066
:101B90004FF6FF7606EA05252A434DF6FF752B40E2
:101BA0000D8906EA05352B434D8806EA05352B439A
:101BB000FA4DA84202D0FA4DA84208D14BF6FF7563
:101BC0002C408D894FF6FF7606EA85152C438480DC
:101BD0008283CD88A0F84050038470BD828B4FF281
:101BE000FF331A408283828B4FF6FF7303EA01238F
:101BF0001A4382837047F0B50C4615460022002137
:101C00000026078C4EF6FF7C07EA0C070784828BC0
:101C1000018C4FF6FF7707EA043640F6FF473A405B
:101C20004FF6FF7707EA05273A434FF6FF7707EAB3
:101C300003373A43D94FB8420ED0D94FB8420BD0F0
:101C4000B0F1804F08D0D74FB84205D0D64FB84238
:101C500002D0D64FB84206D14DF6FF77394046F450
:101C60008057394305E047F6FF57394044F4805721
:101C7000394382830184F0BD828B4FF6F3731A409F
:101C80008283828B0A4382837047F0B50C461546E7
:101C9000002200210026078C4FF6FF6C07EA0C0794
:101CA0000784828B018C4FF6FF7707EA04264FF6F4
:101CB0000C773A404FF6FF7707EA03172F433A4372
:101CC000B64FB8420ED0B64FB8420BD0B0F1804FED
:101CD00008D0B44FB84205D0B34FB84202D0B34F8A
:101CE000B84206D14FF6FF57394046F48077394362
:101CF00005E04FF2FF57394044F48077394382833F
:101D00000184F0BD028B4FF2FF331A400283028B35
:101D10004FF6FF7303EA01231A4302837047F0B5BD
:101D20000C461546002200210026078C4FF6EF7C5A
:101D300007EA0C070784028B018C4FF6FF7707EA4E
:101D4000041640F6FF473A404FF6FF7707EA03379D
:101D50003A434FF6FF7707EA05273A438F4FB842D9
:101D60000ED08F4FB8420BD0B0F1804F08D08D4FBE
:101D7000B84205D08C4FB84202D08C4FB84206D141
:101D80004FF6DF77394046F01007394305E04FF64C
:101D90005F77394044F01007394302830184F0BD76
:101DA000028B4FF6F3731A400283028B0A430283BD
:101DB0007047F0B50C46154600220021068C4FF600
:101DC000FE773E400684028B018C4FF60C76324043
:101DD0007E1C06EA03162E433243704EB0420ED0EC
:101DE0006F4EB0420BD0B0F1804F08D06D4EB04274
:101DF00005D06D4EB04202D06C4EB04206D14FF6C7
:101E0000FD76314044F00106314305E04FF6F576AA
:101E1000314044F00106314302830184F0BD70B5C6
:101E200005460C465D4885420ED05D4885420BD084
:101E3000B5F1804F08D05B48854205D05A488542AD
:101E400002D05A48854200D100E000BF208850B936
:101E50002389A28861882846FFF7ABFFE1882846DE
:101E6000FFF79EFF25E0208804280AD12389A28855
:101E700061882846FFF753FFE1882846FFF742FFB5
:101E800017E0208808280AD12389A288618828467B
:101E9000FFF7FBFEE1882846FFF7EEFE09E0238905
:101EA000A28861882846FFF7A6FEE1882846FFF74A
:101EB00095FE70BD2DE9F04105460C460026012730
:101EC000608808B9022600E00026A088012801D118
:101ED000022700E001272088A0B92389A288618811
:101EE0002846FFF766FFE1882846FFF759FF238958
:101EF0003A4631462846FFF712FFE1882846FFF7A9
:101F000001FF13E02389A28861882846FFF707FFB5
:101F1000E1882846FFF7F6FE23893A4631462846EF
:101F2000FFF747FFE1882846FFF73AFFBDE8F08159
:101F30000A884B881A438B881A43CB881A430B892B
:101F40001A434B891A438B891A43A0F844207047DF
:101F50004FF6FF71818000210180C18041800172B4
:101F600070470021018041808180C18001814181D1
:101F70008181C181704700210180418001218180E0
:101F80000021C18001817047002101804180818052
:101F9000C18001814181818170470000002C014096
:101FA000003401400004004000080040000C0040E4
:101FB00021B1028842F00102028004E002884FF65B
:101FC000FE731A400280704731B1B0F8442042F4E9
:101FD0000042A0F8442005E0B0F84420C2F30E020D
:101FE000A0F8442070471AB183890B43838102E033
:101FF00083898B43838170478182704741EA020362
:10200000A0F8483070471AB183890B43838102E0FE
:1020100083898B438381704701894FF6F8721140A1
:10202000018170470A46002101894FF68F731940DC
:1020300011430181704730B504460D4629462046BC
:10204000FFF7F0FF208940F00700208130BD2DE927
:10205000F04104460D4616461F46602D06D13B460C
:10206000012231462046FFF75AFE05E03B46012299
:1020700031462046FFF79DFE29462046FFF7D2FF56
:10208000208940F007002081BDE8F08130B50C4682
:1020900000210189C9B24FF6FF7505EA03251543F2
:1020A00025432943018130BD2DE9F04105460E4607
:1020B00017469846002443463A4631462846FFF7DD
:1020C000E5FF2C894FF6F870044044F007044FF602
:1020D0008F70044044F070042C81BDE8F081F0B5AD
:1020E00004460D4616461F463B46324629462046C4
:1020F000FFF7CCFF208940F480402081F0BD0185AE
:10210000828270470A46002101884FF68F7319407A
:10211000114301807047F0B50C4615461E4600215C
:10212000002200230189028B038C4FF6F877394097
:1021300021434FF6FC473A4040F201173A434FF62D
:10214000DD773B404FF6FF7707EA06172F433B4307
:10215000018102830384F0BD0A460021018B4FF602
:102160008F7319401143018370470A460021018B88
:1021700048F6FF7319404FF6FF7303EA0223194331
:10218000018370470A460021818B4FF68F731940F7
:102190001143818370470A460021818B48F6FF7303
:1021A00019404FF6FF7303EA0223194381837047F6
:1021B00021B1028842F08002028004E002884FF6DA
:1021C0007F731A400280704721B1828842F0040276
:1021D000828004E082884FF6FB731A408280704749
:1021E00021B1828842F00802828004E082884FF6A2
:1021F000F7731A408280704721B1828842F0010251
:10220000828004E082884FF6FE731A408280704715
:102210000A460021018B4FF6F773194011430183E1
:1022200070470A460021018B4FF2FF7319404FF6A9
:10223000FF7303EA02231943018370470A46002112
:10224000818B4FF6F77319401143818370470A461B
:102250000021818B4FF2FF7319404FF6FF7303EAA1
:1022600002231943818370470A460021018B4FF6F0
:10227000FB7319401143018370470A460021018B0B
:102280004FF6FF3319404FF6FF7303EA0223194359
:10229000018370470A460021818B4FF6FB7319407A
:1022A0001143818370470A460021818B4FF6FF332B
:1022B00019404FF6FF7303EA0223194381837047E5
:1022C0000A460021018B4FF67F73194011430183A9
:1022D00070470A460021018BC1F30E014FF6FF73D0
:1022E00003EA02231943018370470A460021818BC8
:1022F0004FF67F7319401143818370470A460021CE
:10230000818BC1F30E014FF6FF7303EA02231943D9
:10231000818370470A460021018C4FF6FD731940F6
:102320001143018470470A460021018C4FF6F77370
:1023300019401143018470470A460021018C4FF671
:10234000DF7319404FF6FF7303EA02131943018448
:1023500070470A460021018C4FF67F7319404FF6F3
:10236000FF7303EA02131943018470470A460021F0
:10237000018C4FF6FF5319404FF6FF7303EA022317
:102380001943018470470A460021018C4FF2FF7304
:1023900019404FF6FF7303EA022319430184704783
:1023A0000A460021018C4DF6FF7319404FF6FF736A
:1023B00003EA023319430184704730B50023012436
:1023C0008C40A3B2048C9C430484048C02FA01F573
:1023D000ADB22C43048430BD30B5002304248C40BE
:1023E000A3B2048C9C430484048C02FA01F5ADB2C0
:1023F0002C43048430BD70B50346002000241846E9
:10240000183001258D40ACB21D8CA5431D8409B147
:10241000082909D100EB6100056825F07005056009
:102420000568154305600EE00D1FC5F34E052844F1
:10243000056825F4E045056005684FF6FF7606EA75
:1024400002263543056070BD21B1028842F00202C8
:10245000028004E002884FF6FD731A400280704744
:1024600021B1028842F00402028004E002884FF6A3
:10247000FB731A400280704721B1828842F08002CB
:10248000828004E082884FF67F731A408280704712
:1024900002884FF6F7731A40028002880A430280CE
:1024A000704782884FF68F731A40828082880A4371
:1024B0008280704702894FF6F8731A4002810289C0
:1024C0000A430281704702894FF67F731A400281E6
:1024D00002890A4302817047818470478185704771
:1024E000818670470187704781877047A0F8401048
:1024F000704702884FF6FF431A40028002880A4361
:10250000028070470146888E70470146088F7047E9
:102510000146888F70470146B1F840007047014678
:10252000888C70470146088D704702460020138A48
:102530000B400BB1012000E000207047CA4302822B
:10254000704730B50246002000230024158A05EAB2
:102550000103958905EA010413B10CB1012000E0E3
:10256000002030BDCA4302827047000010B5044607
:10257000FB48844209D101218803FFF79FF800211D
:102580004FF48040FFF79AF832E0F648844209D1D0
:1025900001214804FFF79FF800214FF40030FFF7B6
:1025A0009AF825E0F048844209D101218804FFF718
:1025B00092F800214FF48020FFF78DF818E0EB48E7
:1025C000844209D10121C804FFF785F800214FF4A6
:1025D0000020FFF780F80BE0E548844208D1012194
:1025E0000805FFF778F800214FF48010FFF773F823
:1025F00010BD2DE9F04786B005460E460024A246E0
:1026000000BFA1460027B08900B100BF2F462C8A29
:102610004CF6FF700440F08804432C82AC894EF6DF
:10262000F3100440B088318908437189084304439A
:10263000AC81AC8A4FF6FF400440B0890443AC82C1
:1026400001A8FEF7B4FFC648874202D1DDF810A00A
:1026500001E0DDF80CA0A88900F4004040B10AEBCD
:10266000CA0000EB0A1031684900B0FBF1F807E03E
:102670000AEBCA0000EB0A1031688900B0FBF1F8E0
:102680006420B8FBF0F004012009642101FB1089EB
:10269000A88900F4004040B1322000EBC900B0FB33
:1026A000F1F000F00700044308E0322000EB0910CD
:1026B0006421B0FBF1F000F00F0004432C8106B060
:1026C000BDE8F0874FF41651016000218180C18080
:1026D00001810C21418100218181704710B50246A2
:1026E0000020108A4FF2FF0318400B884C882343C8
:1026F0008C882343CC8823431843108210BD0021CB
:10270000018041808180C180704721B1828942F47B
:102710000052828104E082894DF6FF731A40828163
:102720007047F0B50346002400260025002040F63F
:102730006A17B94200D100BF1846C1F3421401F034
:102740001F06012707FA06F5012C01D10C3004E021
:10275000022C01D1103000E014301AB107682F4369
:10276000076002E00768AF430760F0BD1AB1838AD3
:102770000B43838202E0838A8B4383827047028A01
:102780004FF6F0731A400282028A0A4302827047AF
:1027900082894FF2FF731A40828182890A438281C3
:1027A000704721B1828942F00202828104E082896D
:1027B0004FF6FD731A4082817047028A4FF6DF732D
:1027C0001A400282028A0A430282704721B1028AB9
:1027D00042F48042028204E0028A4BF6FF731A4000
:1027E00002827047C1F308028280704701468888E0
:1027F000C0F308007047818941F001018181704771
:10280000028BD2B20283028B42EA0122028370471A
:10281000028B02F47F420283028B0A4302837047D9
:1028200021B1828A42F02002828204E0828A4FF63D
:10283000DF731A408282704721B1828A42F010020F
:10284000828204E0828A4FF6EF731A4082827047D8
:1028500021B1828A42F00802828204E0828A4FF625
:10286000F7731A408282704721B1828942F4004294
:10287000828103E08289C2F30E028281704721B116
:10288000828A42F40062828204E0828A4FF2FF73FD
:102890001A4082827047828A4FF6FB731A40828206
:1028A000828A0A438282704721B1828A42F0020200
:1028B000828204E0828A4FF6FD731A40828270475A
:1028C00002460020B1F5007F00D100BF13880B4005
:1028D0000BB1012000E00020704701F40072B2F556
:1028E000007F00D100BFCA430280704770B5024626
:1028F000002400230025002040F66A16B14200D1D2
:1029000000BFC1F3421501F01F03012606FA03F3CD
:10291000012D02D19689334006E0022D02D1168A9C
:10292000334001E0968A33400C12012606FA04F483
:102930001688344013B10CB1012000E0002070BDB6
:1029400010B50022002340F66A14A14200D100BF56
:102950000A1201249440A3B2DC43048010BD00009D
:10296000003801400044004000480040004C004056
:1029700000500040704700000FB4044910B503AA8E
:10298000029800F07FF910BC5DF814FB3C000020B9
:102990000FB41CB5074B06AA7B4469460090059806
:1029A00000F057F90020694600F066F91CBC5DF89C
:1029B00014FB0000DD02000070B504468569006864
:1029C000C10601D5302600E02026C00707D070BD23
:1029D000D4E9012130469047206A401C20626D1ED8
:1029E000F6D570BD70B5044685690078C00707D17B
:1029F00070BDD4E9012120209047206A401C20624C
:102A00006D1EF6D570BD00002DE9F041064600248C
:102A100010687529314616A510D0AFF30080002844
:102A200002DA404213A507E031688A0701D512A5F2
:102A300002E0490704D511A5012401E0AFF30080AD
:102A400000210A2206F1240709E0B0FBF2FCB0FBEA
:102A5000F2F302FB1C00303078541846491C002861
:102A6000F3D123462A463046BDE8F04100F093B842
:102A7000000000002D0000002B00000020000000DE
:102A80002DE9F0474FF0000A89460446C0F820A01F
:102A90002046E1688847002876D0252806D0D4E96A
:102AA00001219047206A401C2062F1E7E16820463E
:102AB00000258847C4F81CA006460027C4F818A0C3
:102AC0002A2E09D0304600F025F938B304EB8708E8
:102AD000303EC8F8186019E059F8041B204604EB92
:102AE00087029161E1688847012F064618D1E069A5
:102AF000002820DA25F020051DE0D8F8180000EBAA
:102B0000800006EB40003038C8F818002046E16825
:102B10008847064600F0FEF80028EED1012F0AD0C3
:102B20002E2E08D12046E16888477F1C0646022FDA
:102B300045F02005C4DBA069002803DA404245F0D7
:102B40000105A061E80701D025F01005B6B1A6F196
:102B50004100192802D8203645F400654A4631461E
:102B6000204625604D46FDF7FBFA58B1012806D0F6
:102B7000ED1D25F0070000F1080989E704E005F1E3
:102B8000040985E730468AE7206ABDE8F087704788
:102B90007047704770472DE9F0470D4699469246B9
:102BA000044600F124080168880604D5E06921F094
:102BB0001001216000E00120A84201DD471B00E078
:102BC0000027A1697A1902EB0900081AA061207890
:102BD000C00602D42046FFF7EFFE002608E0D4E945
:102BE00001211AF806009047206A401C761C2062DA
:102BF0004E45F4DB2078C0060AD52046FFF7DCFE00
:102C000006E0D4E9012130209047206A401C206270
:102C1000381EA7F10107F4DC07E0D4E9012118F818
:102C200005009047206A401C2062281EA5F101057E
:102C3000F3DC2046FFF7D6FE2078000602D50220FE
:102C4000BDE8F0870120FBE701694A1C02610878B2
:102C5000704700B58FB0CDE90131002105910549DC
:102C60007944CDE9031011466846FFF709FF0FB01C
:102C700000BD0000E5FFFFFF0A6802F8010B0A60D3
:102C800070470000074B70B50D467B44FFF7E1FF2E
:102C90000446284600F008F810B14FF0FF3070BD30
:102CA000204670BD55DFFFFF007B00F080007047BD
:102CB000754600F02BF8AE4605006946534620F0F5
:102CC0000700854618B020B5FEF742F9BDE8204060
:102CD0004FF000064FF000074FF000084FF0000BD8
:102CE00021F00701AC46ACE8C009ACE8C009ACE88B
:102CF000C009ACE8C0098D46704710B50446AFF373
:102D000000802046BDE81040FDF73FBA00487047FC
:102D10005C04002030380A2801D2012070470020CE
:102D200070470000000000000000002F00000000BD
:102D30000700070000147F147F1400242A7F2A1242
:102D40000062640813230036495522500000050331
:102D5000000000001C224100000041221C00001461
:102D6000083E08140008083E0808000000A06000A3
:102D70000008080808080000606000000020100833
:102D80000402003E5149453E0000427F400000429F
:102D900061514946002141454B31001814127F1002
:102DA000002745454539003C4A4949300001710931
:102DB000050300364949493600064949291E0000E5
:102DC000363600000000563600000008142241008C
:102DD00000141414141400004122140800020151BC
:102DE000090600324959513E007C1211127C007FC5
:102DF00049494936003E41414122007F4141221C60
:102E0000007F49494941007F09090901003E4149C4
:102E1000497A007F0808087F0000417F41000020B8
:102E200040413F01007F08142241007F4040404064
:102E3000007F020C027F007F0408107F003E4141AA
:102E4000413E007F09090906003E4151215E007F95
:102E5000091929460046494949310001017F01010C
:102E6000003F4040403F001F2040201F003F4038AF
:102E7000403F0063140814630007087008070061EE
:102E80005149454300007F41410000552A552A55CC
:102E9000000041417F000004020102040040404064
:102EA0004040000001020400002054545478007F88
:102EB0004844443800384444442000384444487F5F
:102EC00000385454541800087E0901020018A4A4C4
:102ED000A47C007F080404780000447D400000408A
:102EE00080847D00007F102844000000417F400066
:102EF000007C04180478007C0804047800384444FA
:102F0000443800FC242424180018242418FC007CD5
:102F10000804040800485454542000043F4440204E
:102F2000003C4040207C001C2040201C003C4030E5
:102F3000403C004428102844001CA0A0A07C004471
:102F400064544C44141414141414000000000000C1
:102F500000000000000000000000000000F8000079
:102F60000000000000333000000000100C06100CC0
:102F70000600000000000000000040C07840C0785B
:102F80004000043F04043F040400007088FC083043
:102F90000000001820FF211E0000F008F000E018DB
:102FA000000000211C031E211E0000F00888700094
:102FB00000001E2123241927211010160E000000E6
:102FC00000000000000000000000000000E0180405
:102FD0000200000000071820400000020418E00072
:102FE00000000040201807000000404080F08040B2
:102FF00040000202010F01020200000000F0000088
:1030000000000101011F010101000000000000009B
:10301000000080B070000000000000000000000010
:103020000000000101010101010100000000000099
:103030000000003030000000000000000000806050
:103040001804006018060100000000E010080810D5
:10305000E000000F102020100F00001010F80000FA
:1030600000000020203F2020000000700808088891
:103070007000003028242221300000300888884861
:1030800030000018202020110E000000C02010F891
:10309000000000070424243F240000F80888880862
:1030A00008000019212020110E0000E01088881867
:1030B0000000000F112020110E0000380808C83849
:1030C00008000000003F0000000000708808088829
:1030D0007000001C222121221C0000E010080810B2
:1030E000E0000000312222110F00000000C0C000EB
:1030F00000000000003030000000000000800000F0
:1031000000000000806000000000000080402010EF
:1031100008000001020408102000404040404040E8
:10312000400004040404040404000008102040804B
:103130000000002010080402010000704808080880
:10314000F0000000003036010000C030C828E81050
:10315000E0000718272423140B000000C038E0000B
:103160000000203C23020227382008F88888887055
:103170000000203F202020110E00C0300808080861
:103180003800071820202010080008F80808081048
:10319000E000203F202020100F0008F88888E80871
:1031A0001000203F20202320180008F88888E80815
:1031B0001000203F200003000000C030080808383D
:1031C000000007182020221E020008F8080000084E
:1031D000F808203F210101213F20000808F80808D5
:1031E00000000020203F2020000000000808F80810
:1031F0000800C08080807F00000008F888C0281880
:103200000800203F20012638200008F808000000B0
:103210000000203F20202020300008F8F800F8F8B7
:103220000800203F003F003F200008F830C00008A1
:10323000F808203F200007183F00E0100808081099
:10324000E0000F10202020100F0008F808080808E0
:10325000F000203F210101010000E01008080810E3
:10326000E0000F18242438504F0008F88888888818
:103270007000203F2000030C3020007088080808F0
:1032800038000038202121221C00180808F80808FE
:1032900018000000203F2000000008F80800000887
:1032A000F808001F202020201F000878880000C890
:1032B0003808000007380E010000F80800F8000880
:1032C000F800033C0700073C03000818688080688A
:1032D000180820302C03032C30200838C800C838C8
:1032E00008000000203F2000000010080808C8382F
:1032F00008002038262120201800000000FE0202CD
:1033000002000000007F40404000000C30C0000080
:103310000000000000010638C00000020202FE00AA
:103320000000004040407F00000000000402020254
:103330000400000000000000000000000000000089
:103340000000808080808080808000020204000075
:10335000000000000000000000000000808080806D
:1033600000000019242222223F2008F8008080005B
:103370000000003F112020110E000000008080801E
:103380000000000E11202020110000000080808825
:10339000F800000E112020103F2000008080808067
:1033A0000000001F222222221300008080F0888863
:1033B00088180020203F20200000000080808080AE
:1033C0008000006B94949493600008F800808080E3
:1033D0000000203F210000203F200080989800003E
:1033E00000000020203F202000000000008098986E
:1033F000000000C08080807F000008F8000080800E
:103400008000203F24022D302000000808F8000032
:1034100000000020203F20200000808080808080ED
:103420008000203F20003F20003F8080008080807F
:103430000000203F210000203F200000808080808D
:103440000000001F202020201F00808000808000BE
:10345000000080FFA12020110E000000008080806D
:103460008000000E112020A0FF80808080008080DE
:10347000800020203F21200001000000808080800B
:1034800080000033242424241900008080E0808000
:1034900000000000001F202000008080000000804D
:1034A0008000001F202020103F20808080000080AE
:1034B000808000010E3008060100808000800080BE
:1034C00080800F300C030C300F0000808000808063
:1034D00080000020312E0E3120008080800000808E
:1034E000808080818E70180601000080808080803E
:1034F00080000021302C2221300000000000807C60
:10350000020200000000003F40400002027C8000F8
:1035100000000040403F0000000000000000FF00ED
:10352000000000000000FF00000004244484649CAC
:1035300040300FC8080828180000000000000000F4
:103540000000000000000000000010080601824C8E
:10355000201806010618204080000000000000002E
:1035600000000000000000000000404042CC0000CD
:10357000FC040200FC0404FC000000000000000049
:10358000000000000000000000000040201F20405C
:103590004F4442407F42444340000000000000008E
:1035A0000000000000000000000000080828C80813
:1035B00008FF0808886808080000000000000000F4
:1035C0000000000000000000000021211111090589
:1035D00003FF030509111121210000000000000074
:1035E000000000000000000000004262524AC64293
:1035F0005262C200F80000FF00000000000000005E
:103600000000000000000000000040C444447F248B
:10361000242420000F40807F0000000000000000F4
:10362000000000000000000000001060028C00108C
:103630000814A744A4140C000000000000000000BF
:103640000000000000000000000004047E010202EF
:10365000FD4544444445FD02020000000000000016
:1036600000000000000000000000004020100C00DE
:10367000007F00000408106000000000000000004F
:1036800000000000000000000000404044444444AA
:10369000447F444444444440400000000000000093
:1036A0000000000000000000000000F80C0B0808FB
:1036B000F840308F080808F8000000000000000003
:1036C00000000000000000000000007F21212121F7
:1036D0007F0000004380403F000000000000000029
:1036E00000000000000000000000C03008080808CA
:1036F00038000718202020100800000000000000FB
:1037000000000000000000000000007088080808A9
:1037100038000038202121221C0000000000000099
:103720000000000000000000000008F80808081071
:10373000E000203F202020100F00000000000000CB
:103740000000000000000000000008F830C0000881
:10375000F808203F200007183F000000000000008C
:103760000000000000000000000000000000000059
:103770000000000000000000000000000000000049
:103780000000000000000000000000000000000039
:103790000000000000000000000000000000000029
:1037A0000000000000000000000000000000000019
:1037B0000000000000000000000000000000000009
:1037C00000000000000000000000000000000000F9
:1037D00000000000000000000000000000000000E9
:1037E00000000000000000000000000000000000D9
:1037F00000000000000000000000000000000000C9
:10380000008080C0C0E0E0F0F0F0707878787878E0
:103810007878787878787878787878787878787828
:103820007878787878787878787878787878787818
:103830007878787878787878787878787878787808
:10384000787878787878787870F0F0F0E0E0E0C018
:10385000C0808000000000000000000000000000A8
:103860000000000000000000000000000000000058
:103870000000000000000000000080E0F0F8FC3EC6
:103880001F0F070703010100000000000080C0C0F7
:10389000C080800000000000000000000000000068
:1038A0001030303030303030303030303030303038
:1038B0003030303000000000000000000000000048
:1038C00000000000000000000000000001010103F2
:1038D000070F0F1F7EFCF8F0E080000000000000E2
:1038E00000000000000000000000000000000000D8
:1038F0000000000000000000F0FEFFFF1F030000BA
:103900000000000080C0C0E0E0E0E0FEFFFF7F01BB
:1039100001FFFFFFE0E0E0E0E0C080000000000009
:103920000000000000000000000000000000000097
:103930000000000000000000000080C0C0C0C08087
:103940000000001C3E3F7F3F3E1C00000080C0C0C6
:10395000C0C080000000033FFFFFFEE00000000049
:103960000000000000000000000000000000000057
:1039700000000000000000000F7FFFFFF8C0000003
:10398000000000030F0F1F1C1C1C1CFCFCFCF8009B
:1039900000FCFCFC1C1C1C1C1D0F0F030000000085
:1039A000000030282412090D0700382824120905C8
:1039B000020000000000000000030F0F0F0F0F07B0
:1039C000000000E0F0F8F8F8F0E0000000070F0F4A
:1039D0000F0F0F030000C0FCFFFF7F0F000000006F
:1039E00000000000000000000000000000000000D7
:1039F0000000000000000000000001070F1F3F7CD6
:103A0000F8F0E0E0C080800000000001070F0F0E1A
:103A10000E0F0703000000008080C0E0E0F0F070AF
:103A20007070707070707070707070707070707096
:103A300070707070F0F0F0E0E0C080800000000076
:103A4000000000000103030301000000008080C0AB
:103A5000E0E0F0F87E3F1F0F0701000000000000CB
:103A60000000000000000000000000000000000056
:103A70000000000000000000000000000000000046
:103A8000000101030307070F0F0F0E1E1E1E1E1E4F
:103A90001E1E1E1E0E0F0F0F07070303010100005D
:103AA0000000000000000000000000000000000016
:103AB0000000000000000101030307070F0F0F0EB5
:103AC0001E1E1E1E1E1E1E1E1E0E0F0F0F0707039C
:103AD00003010100000000000000000000000000E1
:103AE00000000000000000000000000000000000D6
:103AF00000000000000000000000000000000000C6
:103B000000000000000000000000000000000000B5
:103B100000000000000000000000000000000000A5
:103B20000000000000000000000000000000000095
:103B30000000000000000000000000000000000085
:103B40000000000000000000000000000000000075
:103B50000000000000000000000000000000000065
:103B60000000000000000000000000008C3B000886
:103B7000000000205800000028010008E43B000875
:103B800058000020680A00004401000800A24A040E
:103B900000000000000000000102030406070809FD
:103BA000AE001040B081FFA1A6A83FC8D300D580C9
:103BB000D805D9F1DA12D8308D14AF00000000001A
:103BC00000000000000000000000000000000000F5
:103BD00000010203040102030406070809020406A7
:043BE00008000000D9
:04000005080000ED02
:00000001FF
